:100000000C945D000C9485000C9485000C94850084
:100010000C9485000C9485000C9485000C9485004C
:100020000C9485000C9485000C9485000C9485003C
:100030000C9485000C9485000C9485000C9485002C
:100040000C94CD020C9485000C9485000C948500D2
:100050000C9485000C9485000C9485000C9485000C
:100060000C9485000C94850000000008000201003B
:100070000003040700000000000000000102040863
:100080001020408001020408102001020408102002
:10009000040404040404040402020202020203032E
:1000A0000303030300000000250028002B000000CC
:1000B0000000240027002A00A10011241FBECFEF5A
:1000C000D8E0DEBFCDBF11E0A0E0B1E0ECE9F8E0A0
:1000D00002C005900D92AE30B107D9F721E0AEE035
:1000E000B1E001C01D92A636B207E1F710E0CAEBFD
:1000F000D0E004C02297FE010E944804C83BD1070B
:10010000C9F70E9436040C944C040C9400008EE055
:1001100091E00C94D200CF93DF93C0E0D0E0BE0119
:100120008EE091E00E94C60168EE73E080E090E00E
:100130000E943A032196CA30D10589F7DF91CF9109
:100140000895AF92BF92CF92DF92EF92FF920F93FA
:100150001F93A0900001B0900101C0900201D090C7
:100160000301E0900401F090050100910601109157
:100170000701209108013091090140910A01509135
:100180000B0160910C0170910D018EE091E00E94D5
:100190002F011F910F91FF90EF90DF90CF90BF90B4
:1001A000AF900895FC0181E090E097A786A711AA7F
:1001B00010AA13AA12AA95AB84AB08950F931F93AC
:1001C000CF93DF93EC0100E010E08E8D9F8D081738
:1001D000190774F4C801880F991FEC8DFD8DE80F85
:1001E000F91F68A980810E94FF030F5F1F4FEDCFA9
:1001F0006CA988810E94FF036CA98A810E94FF0379
:100200006CA98C810E94FF036CA98E810E94FF0360
:100210006CA988850E94FF036CA98A850E94FF0350
:100220006CA98C850E94FF038E859F858F3F2FEFE1
:10023000920719F06CA90E94FF038A8D9B8D8F3F56
:100240002FEF920739F068A9DF91CF911F910F919D
:100250000C94FF03DF91CF911F910F9108958F921E
:100260009F92AF92BF92CF92DF92EF92FF920F9345
:100270001F93CF93DF93EC01862F88248394912CD6
:100280009FA68EA619AA18AA1BAA1AAA9DAA8CAA6A
:10029000888379835B834A833D832C831F830E830A
:1002A000F986E886DB86CA86BD86AC860FEF1FEF2F
:1002B0001F870E8761E00E94C60361E08A810E9469
:1002C000C60361E08C810E94C60361E08E810E94BA
:1002D000C60361E088850E94C60361E08A850E94AA
:1002E000C60361E08C850E94C6031F8E1E8E8CA9FA
:1002F0009DA9998B888B9B8B8A8B1D8B0C8B1F8B5D
:100300000E8B198F088F1B8F0A8F18A219A21AA2A1
:100310001BA21CA21DA21EA21FA218A619A61AA6E5
:100320001BA684E690E09DA78CA71FAA1EAA99AEE3
:1003300088AE1BAF0AAF1CAE1DAE1EAE1FAEFE01D7
:10034000E05CFF4F10821182128213823496108279
:100350001182128213823496118210823296118297
:100360001082329611821082329680E28083CE0112
:10037000DF91CF911F910F91FF90EF90DF90CF9081
:10038000BF90AF909F908F900C94DE000F931F93BF
:10039000CF93DF93EC018B016CA988810E94FF034E
:1003A0006CA98A810E94FF036CA98C810E94FF03C3
:1003B0006CA98E810E94FF036CA988850E94FF03AF
:1003C0006CA98A850E94FF036CA98C850E94FF039B
:1003D0000130110539F46AA98A810E94FF036AA9D4
:1003E0008C8115C002301105A9F46AA988810E9488
:1003F000FF036AA98A810E94FF036AA98C850E9473
:10040000FF036AA988850E94FF036AA98E810E9462
:10041000FF0344C003301105A9F46AA988810E9432
:10042000FF036AA98A810E94FF036AA98C850E9442
:10043000FF036AA98C810E94FF036AA98E810E9432
:10044000FF0342C00430110589F46AA98A850E941D
:10045000FF036AA98C850E94FF036AA98A810E9412
:10046000FF036AA98C810E94FF035AC00530110561
:10047000A9F46AA988810E94FF036AA98A850E945B
:10048000FF036AA98C850E94FF036AA98C810E94E0
:10049000FF036AA98E810E94FF035CC0063011052C
:1004A00099F46AA988810E94FF036AA98A850E943B
:1004B000FF036AA988850E94FF036AA98E810E94B2
:1004C000FF036AA98C8127C00730110559F46AA976
:1004D00088810E94FF036AA98A810E94FF036AA99A
:1004E0008C8150C008301105D9F46AA988810E9416
:1004F000FF036AA98A810E94FF036AA98C810E9476
:10050000FF036AA98E810E94FF036AA988850E9461
:10051000FF036AA98A850E94FF036AA98C8532C0FD
:1005200009301105B9F46AA98C850E94FF036AA9F4
:100530008A850E94FF036AA988810E94FF036AA935
:100540008A810E94FF036AA98C810E94FF036AA925
:100550008E8118C0012BE1F46AA988810E94FF03F3
:100560006AA98A810E94FF036AA98C810E94FF0305
:100570006AA98E810E94FF036AA988850E94FF03F1
:100580006AA98A85DF91CF911F910F910C94FF0387
:10059000DF91CF911F910F9108951F920F920FB687
:1005A0000F9211242F933F938F939F93AF93BF93F9
:1005B00080915E0190915F01A0916001B091610115
:1005C00030915D0123E0230F2D3720F40196A11D0A
:1005D000B11D05C026E8230F0296A11DB11D209371
:1005E0005D0180935E0190935F01A0936001B093E1
:1005F00061018091620190916301A0916401B091C9
:1006000065010196A11DB11D809362019093630164
:10061000A0936401B0936501BF91AF919F918F91B9
:100620003F912F910F900FBE0F901F9018953FB7DD
:10063000F8948091620190916301A0916401B0915E
:10064000650126B5A89B05C02F3F19F00196A11D95
:10065000B11D3FBF6627782F892F9A2F620F711D1A
:10066000811D911D42E0660F771F881F991F4A95D3
:10067000D1F70895CF92DF92EF92FF92CF93DF935D
:100680006B017C010E941703EB01C114D104E1044A
:10069000F10489F00E9445040E9417036C1B7D0B36
:1006A000683E734090F381E0C81AD108E108F10870
:1006B000C851DC4FEACFDF91CF91FF90EF90DF90F0
:1006C000CF900895789484B5826084BD84B58160AC
:1006D00084BD85B5826085BD85B5816085BDEEE64A
:1006E000F0E0808181608083E1E8F0E01082808129
:1006F00082608083808181608083E0E8F0E0808197
:1007000081608083E1EBF0E0808184608083E0EBB6
:10071000F0E0808181608083EAE7F0E0808184609E
:1007200080838081826080838081816080838081FA
:10073000806880831092C1000895833081F028F48E
:10074000813099F08230A1F008958730A9F0883087
:10075000B9F08430D1F4809180008F7D03C0809106
:1007600080008F7780938000089584B58F7702C0D2
:1007700084B58F7D84BD08958091B0008F7703C0CC
:100780008091B0008F7D8093B0000895CF93DF9368
:1007900090E0FC01E458FF4F2491FC01E057FF4F2B
:1007A0008491882349F190E0880F991FFC01E2555C
:1007B000FF4FA591B4918C559F4FFC01C591D491E9
:1007C0009FB7611108C0F8948C91209582238C9377
:1007D000888182230AC0623051F4F8948C91322FC0
:1007E000309583238C938881822B888304C0F8946E
:1007F0008C91822B8C939FBFDF91CF9108950F93A3
:100800001F93CF93DF931F92CDB7DEB7282F30E031
:10081000F901E859FF4F8491F901E458FF4F149111
:10082000F901E057FF4F04910023C9F0882321F01C
:1008300069830E949D036981E02FF0E0EE0FFF1FA6
:10084000EC55FF4FA591B4919FB7F8948C9161112D
:1008500003C01095812301C0812B8C939FBF0F9003
:10086000DF91CF911F910F91089508950E94620327
:100870000E9435040E948700C0E0D0E00E948B00F7
:100880002097E1F30E940000F9CF0895EE0FFF1FBB
:0C0890000590F491E02D0994F894FFCF3E
:0E089C0008000700060005000400030002002B
:00000001FF
